:020000040800F2
:10000000A0040020010100089B100008FB0E00085E
:100010009910000849010008891300080000000039
:10002000000000000000000000000000E9100008CF
:100030004B01000800000000BD100008EB10000894
:100040001B0100081B0100081B0100081B01000820
:100050001B0100081B0100081B0100081B01000810
:100060001B0100081B0100081B0100081B01000800
:100070001B0100081B0100081B0100081B010008F0
:100080001B0100081B0100081B0100081B010008E0
:100090001B0100081B0100081B0100081B010008D0
:1000A000A9110008B51100081B0100081B01000878
:1000B0001B0100081B0100081B0100081B010008B0
:1000C0001B0100081B0100081B0100081B010008A0
:1000D0001B0100081B0100081B0100081B01000890
:1000E0001B0100081B0100081B010008DFF80CD0F1
:1000F00000F018F800480047AD130008A0040020E5
:100100000648804706480047FEE7FEE7FEE7FEE7B1
:10011000FEE7FEE7FEE7FEE7FEE7FEE76111000807
:10012000ED000008064C074D06E0E06840F00103D2
:1001300094E8070098471034AC42F6D3FFF7DAFF93
:100140002C1400084C140008FEE7704770B50446F4
:1001500000F0F6F80546601C02D00448007804441C
:1001600000F0EEF8401BA042FAD370BD0C00002056
:100170002DE9F84FDFF890A100220AF1040B144694
:1001800001274FF00F090BF1040E00BF0B6807FAAF
:1001900004F52B40AB4274D1DFF870C14E68A6EB7A
:1001A0000C0866452BD00DDC032E34D005DC36B3AD
:1001B000012E19D0022E2FD11BE0112E16D0122E97
:1001C0002AD119E0B8F5881F19D006DCB8F5803FB0
:1001D00015D0B8F5801F1FD111E0B8F5001F0ED063
:1001E000B8F5041F18D10AE0CA6815E0CA68121DE4
:1001F00012E0CA6808320FE0CA680C320CE08A6864
:100200002AB1012A4FF0080203D0456104E004221C
:1002100002E0056100E00022FF2B01D8064601E064
:1002200000F104064FEA840501D9A5F12005D6F8AE
:1002300000C009FA05F82CEA080C02FA05F54CEAA8
:10024000050CC6F800C04D68ED0057D5304DAE69BD
:1002500046F00106AE61AD6924F0030605F0010524
:1002600000952C4D06EB050CDCF80850A6074FEA6C
:10027000167809FA08F6B543274EB04202D1002697
:1002800010E03BE0254EB04201D101260AE0244EA9
:10029000B04201D1022605E0224EB04201D1032630
:1002A00000E0042606FA08F62E43CCF808604D68F4
:1002B000DAF80060ED03554601D51E4300E09E4389
:1002C0002E604D68DBF80060AD035D4601D51E432E
:1002D00000E09E432E604D68DEF80060ED0275463A
:1002E00001D51E4300E09E432E604D68AD020E4DC9
:1002F0002E6801D51E4300E09E432E60641C102C26
:10030000FFF444AFBDE8F88F000401400000111075
:10031000001002400000014000080140000C0140B4
:1003200000100140001401400C040140C2684A4022
:10033000C26070470AB1016170470904FBE7000021
:1003400001488068704700000C0000200248816866
:1003500002781144816070470C000020074810B5F6
:10036000016841F010010160032000F09DF80020B9
:1003700000F006F800F024F8002010BD0020024034
:1003800070B50D4D04464FF47A712878B1FBF0F04A
:100390000A490968B1FBF0F000F00DFB48B9102CD8
:1003A00007D200222146501E00F05EF800206C604B
:1003B00070BD012070BD00000C000020180000205E
:1003C000214808B5816941F001018161816901F02D
:1003D00001010091C16941F08051C161C06900F023
:1003E00080500090032000F05FF8002211466FF06B
:1003F0000B0000F039F8002211466FF00A0000F0FF
:1004000033F8002211466FF0090000F02DF80022A9
:100410001146501F00F028F800221146101F00F06E
:1004200023F800221146901E00F01EF8002211460B
:10043000501E00F019F80548416821F0E06141F0D4
:100440000071416008BD0000001002400000014042
:1004500000F01F02012191404009800000F1E020DE
:10046000C0F8001170470000F0B40E4B1B680C463A
:10047000C3F30223C3F10705042D00D90425191D78
:10048000072901D2002300E0DB1E012606FA05F150
:10049000491E214099409E40761E16403143F0BCD3
:1004A00000F0FCBD0CED00E0064900F00702086812
:1004B0004FF6FF03184040EA0220034A1043086049
:1004C000704700000CED00E00000FA052DE9F04750
:1004D000DFF83C8105460E46D8F8000000F0070022
:1004E000B0420CD2D8F8001021F007013143C8F80F
:1004F0000010D8F8000000F00700B04263D128785F
:10050000444C800705D56068A96820F0F0000843D6
:1005100060602878C00745D06868012816D0216837
:10052000022816D0890700294DDA616821F00301FD
:1005300001436160FFF704FF6968074641F28830B4
:1005400001290FD00229814619D027E021688903AB
:10055000E9E78901E7E700BFFFF7F2FEC11B494564
:1005600001D918E081466068C0F381000128F3D109
:1005700018E000BFFFF7E4FEC11B49450BD86068D7
:10058000C0F381000228F5D10CE000BFFFF7D8FED0
:10059000C11B494502D90320BDE8F087606810F00F
:1005A0000C0FF3D1D8F80010404601F00701B1421A
:1005B0000BD9016821F0070131430160006800F0A8
:1005C0000700B04201D00120E6E72878400705D5B2
:1005D0006068E96820F4E0600843606028780007FC
:1005E00006D56068296920F4605040EAC100606067
:1005F00000F01CF86168084AC1F30311515CC8405F
:10060000064908600020FFF7BBFE0020C4E7000099
:1006100000200240001002401C14000818000020B6
:1006200001480068704700001800002012A185B042
:100630000FC98DE80F0014A0144A00680490516897
:10064000134801F00C03042B10D0082B0ED1C1F37A
:100650008343C9031DF803000AD5516804AAC1F3F6
:100660004041515C0A4A5043B0FBF1F005B070477D
:1006700008494843FAE70000020304050607080991
:100680000A0B0C0D0E0F10100102000000100240AA
:1006900000127A0000093D002DE9F84F0446007869
:1006A000B94DC00748D06868C0F38100012807D061
:1006B0006868C0F38100022809D16868C00306D5C4
:1006C0002868800338D5606800286FD034E06068FF
:1006D000B0F5803F0BD010B1B0F5A02F11D0286835
:1006E00020F480302860286820F4802002E0286808
:1006F00040F480302860606888B1FFF721FE06462C
:1007000009E0286840F480202860F0E7FFF718FE31
:10071000801B642875D828688003F7D50CE0FFF7A4
:100720000FFE064605E000BFFFF70AFE801B6428A7
:10073000F0D828688003F7D42078944E80074FF0D3
:1007400001094FF000083BD5686810F00C0F07D086
:100750006868C0F38100022809D16868C00306D424
:100760002868800714D5206901281FD110E020696E
:10077000B0B1C6F80090FFF7E3FD074605E000BF03
:10078000FFF7DEFDC01B0228C4D828688007F7D514
:100790002868616920F0F80040EAC10028600FE095
:1007A000C6F80080FFF7CCFD074606E0E9E000BF91
:1007B000FFF7C6FDC01B022823D828688007F7D49E
:1007C000207800072CD57248A169D9B1C0F80090F3
:1007D000FFF7B6FD074604E0FFF7B2FDC01B022895
:1007E0000FD8686A8007F7D56A484FF4FA51006855
:1007F000B0FBF1F0009000BF0098411E0091FAD2CA
:100800000EE080E0C0F80080FFF79AFD074604E0A4
:10081000FFF796FDC01B022875D8686A8007F7D4D9
:100820002078400760D5E8690027C00008D4E8694F
:1008300040F08050E861E869012700F080500090A6
:1008400055480168C90513D40168834641F4807195
:100850000160FFF775FD824606E000BFFFF770FDFF
:10086000A0EB0A0064284ED8DBF80000C005F5D5DF
:10087000E06801280AD008B1052813D0286A20F0C2
:1008800001002862286A20F0040002E0286A40F093
:1008900001002862E06841F2883B98B1FFF750FD03
:1008A00082460BE0286A40F004002862EEE700BFB1
:1008B000FFF746FDA0EB0A0159455AD8286A800780
:1008C000F6D50CE0FFF73CFD824605E0FFF738FD6A
:1008D000A0EB0A0159454CD8286A8007F6D41FB10D
:1008E000E86920F08050E861E06988B36968C1F385
:1008F0008101022945D00228C6F8608004D0FFF7A4
:100900001FFD044638E034E0FFF71AFD074604E017
:10091000FFF716FDC01B02282BD828688001F7D4EA
:10092000206AB0F5803F05D16868A16820F40030E6
:1009300008436860D4E908010843696821F4741128
:1009400008436860C6F86090FFF7FAFC044606E0CA
:1009500015E000BFFFF7F4FC001B022809D8286847
:100960008001F7D50BE000BFFFF7EAFC001B02286F
:1009700002D90320BDE8F88F28688001F4D4002054
:10098000F8E70120F6E700000010024000004242B4
:100990008004424218000020007000404FF0E02127
:1009A0000428086903D020F004000861704740F073
:1009B0000400FAE7704710B5401EB0F1807F01D304
:1009C000012010BD4FF0E02460610F21601700F09E
:1009D00065FB0020A06107202061002010BD10B53C
:1009E000FFF7E8FF10BD7047704710B590F83C2046
:1009F000012A25D0012280F83C20CA688C6822F4A4
:100A0000407222434C6822F4806222430C6822F434
:100A1000006222430C6922F4805222434C6922F482
:100A2000005222438C6922F48042224322F4004186
:100A3000026800232143516480F83C30002010BD3F
:100A4000022010BD30B590F83C20012A20D00122B0
:100A500080F83C20022380F83D3003685C6824F075
:100A600070045C6003685C680D682C435C6003681C
:100A70009C6824F080049C6003689C6849680C436F
:100A80009C6080F83D20002180F83C10084630BD75
:100A9000022030BD0168CA6842F00102CA600068E5
:100AA000016841F001010160002070472DE9F0412B
:100AB0000D46040003D094F83D0018B108E0012071
:100AC000BDE8F081002084F83C00204600F03AF8B0
:100AD000022084F83D002068816821F007018160D0
:100AE000211D206800F06CFB226890689169166AED
:100AF0002B68AF69034340F20330814341EA072189
:100B0000A868EF6908434FF6FC418843E96840EA6A
:100B10000720014328692F6A000140EA0730084393
:100B200069686D6926F0AA0646EA051529439360AF
:100B30002268906120680162012084F83D00002055
:100B4000BEE7000000B5006885B0B0F1804F11D15C
:100B50000948C16941F00101C161C069694600F0FD
:100B600001000490032000900020019002900348AF
:100B7000FFF7FEFA05B000BD00100240000801407A
:100B800010B50446006891B1042904D00122002167
:100B900000F04CFB206801225FF0040100F046FBEE
:100BA0002068016841F001010160002010BD0122B0
:100BB0000021F3E7704770B50446006801694FF003
:100BC0000005C943890715D4C168C943890711D4F1
:100BD000E91E016101202077206880698007204696
:100BE00002D0FFF7E7FF04E000F0ACF8204600F089
:100BF00053F9257720680169C943490717D4C168AB
:100C0000C943490713D46FF0040101610220207722
:100C10002068806910F4407F204602D0FFF7CAFFA9
:100C200004E000F08FF8204600F036F925772068C0
:100C30000169C943090716D4C168C943090712D419
:100C40006FF008010161042020772068C0698007E7
:100C5000204602D0FFF7AEFF04E000F073F8204614
:100C600000F01AF9257720680169C943C90617D42D
:100C7000C168C943C90613D46FF01001016108208F
:100C800020772068C06910F4407F204602D0FFF72B
:100C900091FF04E000F056F8204600F0FDF82577BB
:100CA00020680169C943C90708D1C168C943C90798
:100CB00004D1891E0161204600F008F9206801690D
:100CC000C943090609D4C168C943090605D46FF0B0
:100CD000800101612046FFF786FE20680169C94353
:100CE000490609D4C168C943490605D46FF04001DB
:100CF0000161204600F000F920680169C9438906B6
:100D00000BD4C168C943890607D46FF02001016183
:100D10002046BDE87040FFF767BE70BD1FB5006894
:100D20000649884209D14FF440700090022001909A
:100D3000039069460248FFF71BFA1FBD002C0140D3
:100D400000080140704770B5044690F83C000D461D
:100D500001280DD0012684F83C60022084F83D0073
:100D600042B1042A18D0082A2AD00C2A4DD139E0E1
:100D7000022070BD206800F065FA2068816941F0AA
:100D8000080181612068816921F004018161206886
:100D900081692A69114311E0206800F07BFA20681C
:100DA000816941F4006181612068816921F4806179
:100DB0008161206881692A6941EA0221816124E018
:100DC000206800F093FA2068C16941F00801C16110
:100DD0002068C16921F00401C1612068C1692A69E4
:100DE000114311E0206800F0ADFA2068C16941F4B8
:100DF0000061C1612068C16921F48061C16120681E
:100E0000C1692A6941EA0221C16184F83D6000207C
:100E100084F83C0070BD10B5040003D094F83D0088
:100E200010B107E0012010BD002084F83C002046EE
:100E300000F00CF8022084F83D00211D206800F02D
:100E4000BFF9012084F83D00002010BD08B50068FE
:100E50000F4988421AD10F48816941F400618161CC
:100E60008069002200F40060009011461820FFF70E
:100E7000FBFA1820FFF7ECFA002211461920FFF7C1
:100E8000F3FABDE808401920FFF7E2BA08BD0000F8
:100E9000002C0140001002407047000010B50446CD
:100EA0000068012200F0C2F907492068884203D196
:100EB000416C41F4004141642068016841F0010146
:100EC0000160002010BD0000002C01400749084BC4
:100ED0000A68521C0A60984206D1142A04DB0020DA
:100EE00008600449012008607047000000000020ED
:100EF0001C000020080000207047FEE730B51748AE
:100F000085B0816941F010018161816901F01001B2
:100F10000491816941F020018161816901F0200122
:100F20000491816941F00401816180690C4D00F0F8
:100F300004004FF400540490002221462846FFF795
:100F4000F9F90120CDE90040002002900220039031
:100F500069462846FFF70CF905B030BD0010024085
:100F60000010014010B52A4890B02849016047217F
:100F70000024C0E9011440F2E731C0E903144461E0
:100F80008461FFF748FF18B1442122A000F0FDF969
:100F90000E940EA91E480F94FFF754FD18B14B2173
:100FA0001CA000F0F2F96020CDE900040294039443
:100FB000049405940022694615480694FFF7C3FE81
:100FC00018B1572113A000F0E0F904226946104837
:100FD000FFF7B9FE18B15C210EA000F0D6F9079416
:100FE000089409944FF400500A94CDE90B4007A9E6
:100FF00007480D94FFF7F9FC18B1682105A000F02F
:10100000C4F90348FFF78AFE10B010BD002C014060
:101010001C0000202E2E2F5372632F74696D2E63D7
:101020000000000010B517488CB04FF0804100243C
:10103000C0E900144FF6FF71C0E902410461846108
:101040000320CDE900040120CDE902040494CDE998
:101050000540079469460B480894FFF727FD18B12F
:10106000852109A000F091F9099409A905480A947D
:10107000FFF7E8FC002803D08C2103A000F085F9DD
:101080000CB010BD5C0000202E2E2F5372632F7405
:10109000696D2E6300000000FEE770470907090E26
:1010A000002806DA00F00F0000F1E02080F8141D9F
:1010B000704700F1E02080F800147047704700008E
:1010C0000021022803D0042807D0002070474FF0E9
:1010D0008042506A516200B27047024A1068116043
:1010E00000B2704724080040704710B5FFF72EF992
:1010F000BDE81040FFF773BC30B58FB00121080484
:10110000CDE900100024029402250491CDE9075096
:101110004FF4E01009906846FFF7BEFA00B1FEE711
:101120000F20CDE90A054FF48060CDE90C40022183
:101130000AA80E94FFF7CAF900B1FEE7FFF770FAAC
:101140004FF47A71B0FBF1F0FFF735FC0420FFF7A4
:1011500025FC00221146501EFFF786F90FB030BD66
:101160000D48016841F00101016041680B4A1140DE
:10117000416001680A4A11400160016821F4802140
:101180000160416821F4FE0141604FF41F0181605C
:101190000449C00308607047001002400000FFF8D7
:1011A000FFFFF6FE08ED00E00148FFF704BD000078
:1011B0001C0000200148FFF7FEBC00001C000020BE
:1011C000F0B50268164B174C174D4FF08047984208
:1011D00005D0B84203D0A04201D0A84203D122F0EA
:1011E00070064A683243984205D0B84203D0A04204
:1011F00001D0A84203D122F44074CA68224322F0ED
:1012000080044A69224302608A68C2620A68826274
:10121000984201D10969016301214161F0BD0000DB
:10122000002C0140000400400008004010B50123DC
:10123000046A8B409C430462036A8A40134303623E
:1012400010BD000030B5026A22F001020262026A9B
:101250004368846924F073050C682C4322F002056E
:101260008A682A430A4DA8420BD122F00805CA68B1
:1012700023F440732A434D6922F004021D438B6915
:101280002B434360846149684163026230BD0000C2
:10129000002C014030B5026A22F010020262026A9C
:1012A000436884690D6824F4E64444EA05248D68A3
:1012B00022F0200242EA05120B4DA8420ED1CD6861
:1012C00022F0800242EA05124D6923F4406343EAAA
:1012D00085038D6922F0400243EA850343608461FF
:1012E00049688163026230BD002C014030B5026A5A
:1012F00022F480720262036A4268C46923F40073B4
:1013000024F073050C682C438D6843EA05230C4DCB
:10131000A8420ED1CD6823F4006343EA05234D694A
:1013200022F4405242EA05128D6923F4806342EAB6
:1013300005124260C4614968C163036230BD0000A8
:10134000002C014030B5026A22F480520262046A25
:101350004268C3690D6823F4E64343EA05238D68B8
:1013600024F4005444EA0534064DA84204D14D69E2
:1013700022F4804242EA85124260C36149680164F6
:10138000046230BD002C0140FEE7FEE702E008C821
:10139000121F08C1002AFAD170477047002001E0EF
:1013A00001C1121F002AFBD170470000FEF7D6FFD3
:1013B000FFF7A2FEFFF7A2FDFFF7D4FDFFF732FE15
:1013C0001248FFF767FB00211048FFF767FD042173
:1013D0000E48FFF763FD04210D48FFF7D1FB0D4CCC
:1013E0000D4F00254FF400564FF4967860680128A1
:1013F00004D165600220FFF763FE20603146384665
:10140000FEF794FF4046FEF7A1FEEFE71C00002028
:101410005C000020040000200010014000000000DB
:101420000000000001020304060708094C1400082C
:10143000000000201C0000008C1300086814000845
:101440001C000020840400009C1300080000000021
:10145000000000000000000001000000100000007B
:081460000000000000A24A0494
:04000005080000ED02
:00000001FF
