:020000040800F2
:1000000028160020910900086D0300086F030008FE
:1000100073030008770300087B030008000000005A
:100020000000000000000000000000007F03000846
:100030008103000800000000013A000835070008AD
:10004000AB090008AB090008AB090008AB090008C0
:10005000AB090008AB090008AB090008AB090008B0
:10006000AB090008AB090008AB090008AB090008A0
:10007000AB090008AB090008AB090008AB09000890
:10008000AB090008AB090008AB090008AB09000880
:10009000AB090008AB090008AB090008AB09000870
:1000A000AB090008AB090008AB090008AB09000860
:1000B000AB090008AB090008AB090008AB09000850
:1000C000AB090008AB090008AB090008AB09000840
:1000D000AB090008FF080008AB090008AB090008DD
:1000E000AB090008AB090008AB090008AB09000820
:1000F000AB090008AB090008AB090008AB09000810
:10010000AB090008AB090008AB090008AB090008FF
:10011000AB090008AB090008AB090008AB090008EF
:10012000AB090008AB090008AB090008AB090008DF
:10013000AB090008AB090008AB090008AB090008CF
:10014000AB090008AB090008AB090008AB090008BF
:10015000AB090008AB090008AB090008AB090008AF
:10016000AB090008AB090008AB090008AB0900089F
:10017000AB090008AB090008AB090008AB0900088F
:10018000AB090008AB09000800F002F800F03CF8E9
:100190000AA090E8000C82448344AAF10107DA45E2
:1001A00001D100F031F8AFF2090EBAE80F0013F0F8
:1001B000010F18BFFB1A43F001031847383A00003B
:1001C000583A0000103A24BF78C878C1FAD85207CC
:1001D00024BF30C830C144BF04680C6070470000C1
:1001E0000023002400250026103A28BF78C1FBD840
:1001F000520728BF30C148BF0B6070471FB503F0DE
:1002000073FC1FBD10B510BD03F03BFC1146FFF79A
:10021000F5FF00F084F803F059FC03B4FFF7F2FF98
:1002200003BC00F00DFB000015E0FF2002F0FDFF15
:100230003F2802D1FF2002F065FF012045490860F8
:100240003C2000F0D3FA00204349C1F8A0024FF44B
:100250006B7000F0CBFAE8E721E0002000F0F8F93D
:100260000446012C03D1072003F020F914E0032CED
:1002700003D1072003F08BF80EE0042C03D10520F6
:1002800002F0D3FF08E0022C06D10523334A0021F7
:10029000AFF26B0002F08AFE0A2000F0A7FADCE75A
:1002A00017E02C48001D006808B9012000E000207C
:1002B0002849091D08602848D0F8A80208B901207B
:1002C00000E000202349083108604FF4FA7000F084
:1002D0008DFAE6E770B50446002500BF01F0F0FC9A
:1002E00003F066FB054607231D4A0021AFF24F00CD
:1002F00002F05CFE0523194A0021AFF2D30002F0A0
:1003000055FE0323174A0021AFF2B30002F04EFE60
:100310000A2003F0CBF8284603F04EFB70BD10B561
:10032000A82000F013FA4FF4E13000F096FA00F044
:1003300031F900F04FF900F06DF901F084FB0A2368
:10034000094A0021AFF2730002F030FE01F0A0FC78
:10035000002010BDA0824242008042427C03002067
:100360007C0200207C0400207C010020704700BF3C
:10037000FEE700BFFEE700BFFEE700BFFEE77047F5
:10038000704700000CB5002001900090764800688E
:1003900040F480307449086000BF7348006800F47E
:1003A000003000900198401C0190009818B9019805
:1003B000B0F5A04FF1D16C48006800F4003010B1E6
:1003C0000120009001E0002000900098012846D113
:1003D00065484030006840F0805063494031086013
:1003E0006248006840F44040604908605E48083058
:1003F00000685D49083108600846006840F4004024
:1004000008600846006840F4A05008605848091F7A
:100410000860081F006840F08070091F086000BF76
:100420005148006800F000700028F9D040F20570D3
:10043000504908604C480830006820F003004A49E1
:10044000083108600846006840F00200086000BFFC
:1004500045480830006800F00C000828F8D10CBDB1
:1004600010B54548006840F47000434908603E48B4
:10047000006840F001003C49086000203A4908311A
:100480000860394800683D490840374908603C48E1
:10049000091D0860081F006820F48020091F0860FB
:1004A000002031490C310860FFF76CFF4FF000600D
:1004B00031498039086010BD70B500200022022348
:1004C00000240221284D08352D6805F00C0020B1CC
:1004D000042806D0082834D107E02A4D2A4E35607A
:1004E00033E02A4D284E35602FE01F4D2D1D2D681D
:1004F000C5F380541C4D2D1D2D6805F03F0154B1EE
:10050000224DB5FBF1F5184E361D3668C6F3881638
:1005100005FB06F209E01B4DB5FBF1F5124E361D49
:100520003668C6F3881605FB06F20F4D2D1D2D68A3
:10053000C5F301456D1C6B00B2FBF3F5124E35603F
:1005400003E0104D104E356000BF00BF064D08356A
:100550002D68C5F303150E4E705D0B4D2D68C5401B
:10056000094E356070BD0000003802400070004048
:1005700008544007003C024088ED00E0FFFFF6FE13
:10058000103000240024F4000000002000127A0043
:10059000040000201CB50121202000F0ADFD4FF427
:1005A000C060009001208DF8040000208DF8060046
:1005B00003208DF8050001208DF8070069460448E6
:1005C00000F0FCFA4FF4C061014800F073FB1CBD61
:1005D000001402401CB50121202000F08DFD4FF4D5
:1005E0008070009001208DF8040000208DF8060036
:1005F00003208DF8050002208DF8070069460448A5
:1006000000F0DCFA4FF48071014800F055FB1CBD8E
:10061000001402401CB50121112000F06DFD1C20CA
:10062000009000208DF8040003208DF805000120C3
:100630008DF807006946354800F0C0FA01200090A7
:1006400002208DF807006946314800F0B7FA1CBD5A
:1006500010B5044614B101202E4908702D480078C9
:10066000002837D01021294800F00AFB78B1082172
:10067000264800F005FB50B10421244800F000FB9F
:1006800028B10121224800F0FBFA012822D10A20DA
:1006900000F0ACF800201F49087010211B4800F042
:1006A000EFFA08B9012010BD0821184800F0E8FA57
:1006B00008B90220F7E70421144800F0E1FA08B96C
:1006C0000320F0E70121124800F0DAFA01281BD1DB
:1006D0000420E8E710210D4800F0D2FA012813D1D8
:1006E00008210A4800F0CCFA01280DD1042107485E
:1006F00000F0C6FA012807D10121054800F0C0FA30
:1007000010B90120034908700020CCE70010024016
:10071000000002401400002010B501F0FDF910BDEA
:1007200010B501F03EFA10BD10B50446204602F0A7
:1007300085FF10BD10B53E480078012805D101F0B5
:1007400098F901F0DCFA01F0AFF910BD70B504467C
:100750006FF0040000F08EF9E11704EB5171C1F362
:10076000C701344A1170E11704EB5171CD1041F209
:10077000883045430520304908804FF0E02000696B
:1007800040F002004FF0E021086108464561006931
:1007900040F00100086170BD2DE9F04707460026D2
:1007A0004FF0E020D0F814902248007807FB00F8C2
:1007B000FFF7B2FF4FF0E020856911E04FF0E02035
:1007C0008469AC420CD0AC4202D2281B064403E040
:1007D000A9EB0400284406442546464500D300E022
:1007E000ECE700BFFFF79CFFBDE8F08770B504465B
:1007F0000F480078A0B11148007888B90E480088E9
:10080000844206DB0C48008894FBF0F52846FFF78D
:100810008BFF0948008894FBF0F100FB114084B283
:100820004FF47A7104FB01F0FFF7B6FF70BD0000D2
:100830005A00002016000020180000204D00002063
:1008400000BF704700BF4E4A128802F04002002AE3
:10085000F9D0C2B24A4B9A80704710B588B00446AE
:100860000121084600F048FC0121102000F09EFC08
:1008700007220921434800F02CFA07220A214148A7
:1008800000F027FA4FF4C060069002208DF81C009B
:100890008DF81D0000208DF81E0001208DF81F002E
:1008A00006A9384800F08AF902940020ADF80C003F
:1008B000ADF80E00ADF81000ADF814000C20ADF846
:1008C000120002A92E4800F0D2FD01212C4800F0B0
:1008D00056FE012240F22551294800F006FF25204E
:1008E0008DF8040003208DF805008DF80600012026
:1008F0008DF8070001A800F070F808B010BD10B521
:1009000001F0B7F840F225511D4800F029FF10B35F
:100910001B4800F063FEC4B21B48008800F400408E
:10092000C8B91948008800F4804060B10A2C03D08F
:1009300000201549088020E01348008840F400405A
:100940001149088019E00D2C06D10F48008840F4A9
:1009500080400D49088010E00B480088C0F30D006E
:100960000A490C5408480088401C0749088008467A
:100970000088C72801DD0020088001F095F810BD2F
:1009800000100140000002402000002080040020F0
:100990000948804709480047FEE7FEE7FEE7FEE713
:1009A000FEE7FEE7FEE7FEE7FEE7FEE7044805494F
:1009B000054A064B704700006104000889010008E1
:1009C00028100020281600202812002028120020BD
:1009D00032490143324A1160704770B5002100234B
:1009E0000F22C4781CB32E4C246804F4E064C4F5D0
:1009F000E064C4F30721C1F10404E3B20A4144787E
:100A00009C40E1B28478144021430C07210E254C10
:100A100005786155047804F01F050124AC40057881
:100A20006D11AD0005F1E025C5F8004109E004783D
:100A300004F01F050124AC401B4D0678761145F8E3
:100A4000264070BD194A0A400243154B1B1F1A600D
:100A5000704739B1124A121D12680243104B1B1D18
:100A60001A6006E00E4A121D126882430C4B1B1DD1
:100A70001A607047042808D14FF0E021096941F05D
:100A800004014FF0E022116107E04FF0E021096915
:100A900021F004014FF0E022116170470000FA05D7
:100AA0000CED00E000E400E080E100E080FFFF1FCB
:100AB00010B504469848844208D10121084600F048
:100AC00086FB0021012000F082FB76E093488442FF
:100AD00008D10121022000F07AFB0021022000F061
:100AE00076FB6AE08E48844208D10121042000F0A0
:100AF0006EFB0021042000F06AFB5EE0894884421E
:100B000008D10121082000F062FB0021082000F03C
:100B10005EFB52E08448844208D10121102000F09D
:100B200056FB0021102000F052FB46E07F48844233
:100B300008D10121202000F04AFB0021202000F0F4
:100B400046FB3AE07A48844208D10121402000F077
:100B50003EFB0021402000F03AFB2EE07548844225
:100B600008D10121802000F032FB0021802000F01C
:100B70002EFB22E07048844208D10121801500F04C
:100B800026FB0021A01500F022FB16E06B488442F2
:100B900008D10121401500F01AFB0021601500F07A
:100BA00016FB0AE06648844207D10121001500F0D7
:100BB0000EFB0021201500F00AFB10BDF0B50A461F
:100BC00000210023002400BF3DE0012505FA01F3C8
:100BD000156805EA03049C4234D105684F000326DA
:100BE000BE40B543056015794E00B54006683543F3
:100BF00005601579012D02D01579022D16D1856871
:100C00004F000326BE40B543856055794E00B54080
:100C1000866835438560456801268E40B54345604A
:100C2000456896798E40B6B235434560C5684F0039
:100C30000326BE40B543C560D5794E00B540C668B1
:100C40003543C560491C1029BFD3F0BD4FF6FF7175
:100C500001600021017141718171C171704708B556
:100C60004FF480320092009A0A430092009AC261C7
:100C7000C161009AC261C2690092C269009208BD56
:100C80000246002013690B400BB1012000E0002058
:100C900070470146086980B27047024600205369D8
:100CA0000B400BB1012000E000207047014648696D
:100CB00080B2704701837047418370470AB1018356
:100CC00000E0418370474161704742694A40426198
:100CD0007047F0B5002300244D07ED0E02FA05F32E
:100CE000CE1000F1200555F826504E07F70E0F26BE
:100CF000BE40B543CF1000F1200646F82750CE1075
:100D000000F1200555F8265045EA0304CE1000F105
:100D1000200545F82640F0BD0000024000040240D6
:100D200000080240000C0240001002400014024083
:100D300000180240001C0240002002400024024033
:100D400000280240F948006840F00100F7490860B7
:100D50000020F64908310860F4480068F44908406A
:100D6000F2490860F348091D0860F348EF498431EF
:100D70000860F0481038091D0860EC48006820F44D
:100D80008020EA4908600020E8490C310860E74902
:100D90008C31086070470021E44A921C11701146A2
:100DA0000870704710B501460022002300204A1148
:100DB000012A02D1DD4C236808E0022A03D1DB4C72
:100DC0007034236802E0D94C7434236801F01F02A8
:100DD000012494401C400CB1012000E0002010BD13
:100DE00038B5002000900024002500BF3120FFF717
:100DF000D9FF05460098401C00900098B0F5A04F20
:100E000001D0002DF2D03120FFF7CCFF08B1012432
:100E100000E00024204638BD01460020C34A106887
:100E200020F0F80040EAC10010607047C349086034
:100E300070470021BD4A703211701170012802D034
:100E400004280AD104E00121B84A7032117005E08B
:100E50000521B64A7032117000E000BF00BF704734
:100E6000B7490860704770B5049C41EA82150126B5
:100E7000C6EB530645EA0645054345EA0465AB4E15
:100E8000361D356070BDAD4908667047820142EA83
:100E90000172A64B84331A607047A8498866704770
:100EA00010B5830143EA016343EA02739F4C88341F
:100EB000236010BDA14908677047A049C864704706
:100EC00002460020994B0833186820F0EC6042EA93
:100ED00001031843954B0833186070470246002001
:100EE000924B0833186820F0784042EA0103184317
:100EF0008E4B083318607047014600208B4A083239
:100F0000106820F0030008431060704787480830DD
:100F1000006800F00C00704701460020834A083248
:100F2000106820F0F0000843106070470146002070
:100F30007E4A0832106820F4E05008431060704781
:100F400001460020794A0832106820F4604040EAE7
:100F5000C10010607047F0B5002100220024022576
:100F600000260223714F08373F6807F00C0121B1BA
:100F7000042905D0082937D105E0724F076036E013
:100F8000714F076033E0694F3F1D3F68C7F38056DC
:100F9000664F3F1D3F6807F03F036EB16A4FB7FBD6
:100FA000F3F7DFF888C10CF1040CDCF800C0CCF3D7
:100FB000881C07FB0CF40CE0624FB7FBF3F7DFF87B
:100FC0006CC10CF1040CDCF800C0CCF3881C07FBEE
:100FD0000CF4564F3F1D3F68C7F301477F1C7D004F
:100FE000B4FBF5F7076002E0564F076000BF00BF93
:100FF0004E4F08373F6807F0F0010909534F7A5CFC
:101000000768D7404760494F08373F6807F4E05109
:10101000890A4E4F7A5C4768D7408760434F08374C
:101020003F6807F46041490B484F7A5C4768D740F6
:10103000C760F0BD002100F44072B2F5407F0AD1D4
:101040003A4A0832116821F4F811414A024011432A
:10105000364A08321160354A70321268C0F30B0309
:101060001A43324B70331A6070473549443908606F
:101070007047334940390860704736490860704707
:1010800001460020294A8C32106820F01F004A1EB9
:101090001043264A8C321060704701460020234AD4
:1010A0008C32106820F4F8504A1E40EA02201F4A91
:1010B0008C3210607047014600201C4A8C32106848
:1010C00020F4401008431060704701460020174A82
:1010D0008C32106820F440000843106070470146CD
:1010E0000020124A8C32106820F44030084310600F
:1010F000704719490860704739B10C4A303212689C
:1011000002430A4B30331A6006E0084A3032126854
:101110008243064B30331A607047F9B1034A3432C8
:1011200012680243014B34331A601CE0003802405D
:10113000FFFFF6EA10300024003000200000474294
:10114000800E47420024F40000127A0022000020A2
:10115000FFFCFF0F5C014742E01147428F4A1268D3
:1011600082438E4B1A60704739B18C4A121D126847
:1011700002438A4B1B1D1A6006E0884A121D126842
:101180008243864B1B1D1A60704739B1834A0C326B
:1011900012680243814B0C331A6006E07F4A0C321E
:1011A000126882437D4B0C331A60704739B17B4A19
:1011B000103212680243794B10331A6006E0774A06
:1011C000103212688243754B10331A60704739B180
:1011D000724A243A12680243704B243B1A6006E0BC
:1011E0006E4A243A126882436C4B243B1A60704763
:1011F00039B16A4A203A12680243684B203B1A60B0
:1012000006E0664A203A12688243644B203B1A602B
:10121000704739B1614A1C3A126802435F4B1C3B6C
:101220001A6006E05D4A1C3A126882435B4B1C3B25
:101230001A60704739B1594A143A12680243574B41
:10124000143B1A6006E0554A143A12688243534B25
:10125000143B1A60704739B1504A103A1268024381
:101260004E4B103B1A6006E04C4A103A126882431B
:101270004A4B103B1A60704739B1484A1C32126819
:101280000243464B1C331A6006E0444A1C32126883
:101290008243424B1C331A60704739B13F4A2032B7
:1012A000126802433D4B20331A6006E03B4A20326D
:1012B00012688243394B20331A60704739B1374A7C
:1012C000243212680243354B24331A6006E0334A55
:1012D000243212688243314B24331A60704739B18B
:1012E0002E4A2C32126802432C4B2C331A6006E033
:1012F0002A4A2C3212688243284B2C331A607047DA
:1013000039B1264A303212680243244B30331A6016
:1013100006E0224A303212688243204B30331A6092
:101320007047012808D11D493C31096841F0080186
:101330001A4A3C32116007E018493C31096821F033
:101340000801164A3C321160704739B1134A273AF6
:1013500012780243114B273B1A7006E00F4A273AD6
:10136000127882430D4B273B1A7070470B48403070
:10137000006840F0807009494031086070470146BC
:101380000020064A283A12680A400AB1012000E00B
:1013900000207047014926390870704734380240F0
:1013A00010B50446FA48844208D101211020FFF705
:1013B00052FF00211020FFF74EFF57E0F54884420E
:1013C00009D101214804FFF735FF00214FF4003017
:1013D000FFF730FF4AE0F048844209D10121880438
:1013E000FFF728FF00214FF48020FFF723FF3DE0A7
:1013F000EA48844209D10121C804FFF71BFF0021FC
:101400004FF40020FFF716FF30E0E548844209D191
:1014100001210805FFF70EFF00214FF48010FFF7B0
:1014200009FF23E0DF48844208D101212020FFF793
:1014300012FF00212020FFF70EFF17E0DA48844258
:1014400009D101218807FFF7F5FE00214FF0804008
:10145000FFF7F0FE0AE0D548844207D1012140059C
:10146000FFF7E8FE00216005FFF7E4FE10BD2DE95F
:10147000FF4705460E460024A14600BFA046B0899E
:1014800000B100BF2C8A24F44054F08804432C821D
:10149000AC8941F20C608443B0883189084371897A
:1014A00008430443AC81AC8A24F44074B0890443FB
:1014B000AC826846FFF74FFDB548854202D0B94877
:1014C000854202D1DDF80C9001E0DDF80890A88992
:1014D00000F4004040B109EBC90000EB091031688D
:1014E0004900B0FBF1F707E009EBC90000EB091078
:1014F00031688900B0FBF1F76420B7FBF0F004011C
:101500002009642101FB1078A88900F4004040B153
:10151000322000EBC800B0FBF1F000F007000443FC
:1015200008E0322000EB08106421B0FBF1F000F07D
:101530000F0004432C81BDE8FF874FF41651016072
:1015400000218180C18001810C21418100218181A4
:10155000704710B502460020108A20F470600B8896
:101560004C8823438C882343CC8823431843108220
:1015700010BD0021018041808180C180704721B170
:10158000828942F40052828104E082894DF6FF7321
:101590001A4082817047028B02F47F420283028BE1
:1015A0000A430283704721B1828942F4004282815A
:1015B00003E08289C2F30E028281704721B1828AE0
:1015C00042F40062828204E0828A4FF2FF731A4082
:1015D00082827047C1F30802828070470146888882
:1015E000C0F308007047028A4FF6F0731A40028277
:1015F000028A0A430282704721B1828942F00202C4
:10160000828104E082894FF6FD731A40828170471F
:1016100082894FF2FF731A40828182890A43828154
:101620007047028A4FF6DF731A400282028A0A4329
:101630000282704721B1028A42F48042028204E0B1
:10164000028A4BF6FF731A4002827047818941F08B
:1016500001018181704721B1828A42F008028282B1
:1016600004E0828A4FF6F7731A4082827047028B39
:10167000D2B20283028B42EA01220283704721B177
:10168000828A42F02002828204E0828A4FF6DF736F
:101690001A408282704721B1828A42F0100282820F
:1016A00004E0828A4FF6EF731A4082827047828A82
:1016B0004FF6FB731A408282828A0A438282704705
:1016C00021B1828A42F00202828204E0828A4FF6CD
:1016D000FD731A40828270471AB1838A0B4383825A
:1016E00002E0838A8B4383827047F0B5034600246F
:1016F00000260025002040F66A17B94200D100BF3D
:101700001846C1F3421401F01F06012707FA06F537
:10171000012C01D10C3004E0022C01D1103000E08A
:1017200014301AB107682F43076002E00768AF431F
:101730000760F0BD02460020B1F5007F00D100BF78
:1017400013880B400BB1012000E00020704701F42A
:101750000072B2F5007F00D100BFCA43028070471B
:1017600070B50246002400230025002040F66A16CA
:10177000B14200D100BFC1F3421501F01F030126A1
:1017800006FA03F3012D13D19689334017E00000C8
:10179000001001400044004000480040004C004060
:1017A000005000400014014000780040007C0040E0
:1017B000022D02D1168A334001E0968A33400C1282
:1017C000012606FA04F41688344013B10CB1012046
:1017D00000E0002070BD10B50022002340F66A141E
:1017E000A14200D100BF0A1201249440A3B2DC43FD
:1017F000048010BD7CB5002514E06946284601F040
:1018000013FE064666B9F74850F8254044B1012C4E
:1018100006D0D4E9020100EB810060640198A06465
:10182000681CC5B23F2DE8D97CBD002400BF02E092
:10183000282001F003FFEC4800780028F8D0EB489E
:1018400000686421B0FBF1F0E849086008460068D0
:1018500028B90020E6490870FF2001F027FE00BFEC
:1018600002F0A6F80446E3480068E3490860002057
:10187000E0490860204602F09FF8DF480068DB4935
:101880000968B0FBF1F0C0F16400D949087001F0BB
:10189000B2FFFFF7AFFF142001F0D0FEE0E700B584
:1018A00087B0032000218022D44BCDE90132CDE95D
:1018B00003104FF6FE703E23D14A0090AFF2950020
:1018C00001F0CBFB06AACFA13E2001F02FFD07B00F
:1018D00000BD002400BF00BF02F06AF80446C548FE
:1018E0000068401CC3490860204602F065F801F01A
:1018F00081FFF1E700B587B0032000218022C54BAE
:10190000CDE90132CDE903104FF6FF703F23C24A03
:101910000090AFF2410001F0A0FB06AABFA13F205A
:1019200001F004FD07B000BD04E0002200F8012B27
:101930004A1E91B20029F8D1704770B5C821BB4842
:10194000FFF7F2FF00230FE0581C85B203EB830082
:10195000B64901EB800405EB850001EB8006002011
:1019600020706660581C83B2092BEDD303EB830013
:10197000AE4901EB80040020207060600846AC494D
:10198000086070BD70B54FF47C71AA48FFF7CCFFBA
:101990004FF480719348FFF7C7FF002413E0601CE9
:1019A000C5B2C4EBC40000EB4000A24901EB8003C8
:1019B000C5EBC50000EB400001EB80065E619EA018
:1019C000D864601CC4B20B2CE9D3C4EBC40000EB98
:1019D0004000984901EB80030020586196A0D8642C
:1019E00000209649086093489549086070BD002121
:1019F000944A1170002004E00021934A1154411CC4
:101A0000C8B20828F8D30021904A1170904A11708A
:101A1000904A1160904A1160704700208F49086019
:101A20008F4908708F4908708F4908708F49087076
:101A30008F4908606F4908606F4908606B4908600A
:101A400069490870704710B501F0D0FEFFF7E5FF57
:101A5000FFF7CDFFFFF796FFFFF76FFF00F0EAFEFD
:101A600001F0E1F9FFF746FFFFF719FF01F0BFFEB4
:101A700010BD7E480078012808D179480078FF28F9
:101A800004D277480078401C75490870704779493E
:101A90006C4A1278885C6C49095C764A515C01EBAF
:101AA000C0016B4A1170704710B500246F48007870
:101AB000012830D101F07CFF04466948007820B14C
:101AC00067480078401E6649087065480078F8B994
:101AD00064480078E0B9FFF7DAFF42485C490978CA
:101AE00050F821005B490860594800785749097847
:101AF00088420DD057480068806B401C55490968E2
:101B000088635B480068401C5949086001F070FF19
:101B1000204601F051FF10BD10B500245348007855
:101B2000012811D101F044FF04464D48007840B926
:101B30004C480078FF2804D24A480078401C4949A4
:101B40000870204601F038FF10BD10B5002401F0E8
:101B50002FFF044642480078F8B942480078E0B9BF
:101B6000FFF795FF1F483A49097850F82100394995
:101B70000860374800783549097888420DD03548E3
:101B80000068806B401C33490968886338480068E6
:101B9000401C3749086001F024FF204601F00CFF8B
:101BA00010BD10B500243148007801286FD101F034
:101BB000FFFE04462B48007880B12A480078401E7A
:101BC000284908700846007848B92548007838B98F
:101BD000204601F0F1FEFFF7B8FF58E054E04FE077
:101BE0004AE00000600A00204C0000204400002071
:101BF000400000205C00002048000020600600201B
:101C00005C08002075432F4F532D494920537461C0
:101C100074000000600800205C0A002075432F4F0C
:101C2000532D49492049646C650000004805002097
:101C300038000020600B00203F0000006C000020F6
:101C40006400002051000020520000204F000020BE
:101C50005000002068000020600000207800002074
:101C60004D0000204E0000205B0000205A000020A4
:101C700034000020F23A0008204601F09DFE06E004
:101C8000204601F099FE02E0204601F095FE10BDCD
:101C900010B5EB48007890B9FFF7F9FEE9480078F5
:101CA000E9490870E948E749097850F82100E8490E
:101CB000086008460068E749086001F080FE10BD32
:101CC00010B50024022001F0B9FC01F071FE0446B9
:101CD0000020E1490860204601F06EFE142001F06A
:101CE000ADFC01F065FE0446DB480068DB49086096
:101CF0000120DB490870204601F05EFE10BD70B582
:101D0000002601F050FE01F053FE0646D54800685B
:101D1000401CD4490860304601F04EFEC8480078A7
:101D2000012853D1D048007820B1012804D00228DE
:101D300009D103E001250BE0002509E00125012080
:101D4000C949087004E001250020C749087000BF98
:101D500000BF05B970BDC548046833E001F028FE36
:101D60000646E06A50B3E06A401EE062E06A28BBC3
:101D700094F8300000F0370040B114F8300F00F054
:101D8000C800207001206070303C02E0002084F820
:101D9000310094F8300000F0080078B93434A078AD
:101DA000B34909780843B24908702078B149085C02
:101DB0006178084314F83419AE4A505464693046C7
:101DC00001F0FAFD94F832003F28C7D100BFC1E707
:101DD00040F223107047704710B590F8342001F19D
:101DE0000B039B5C90F83540A34301F10B04A35413
:101DF00023469B5C23B98B7A90F83640A3438B72C1
:101E000010BD2DE9F04F05460F4690469946A87A39
:101E100099490E5C05F10B00805D11F800B00BEBE9
:101E2000C60000F0FF0A894850F82A4000202034FC
:101E3000E0602760207C20EA0800207484F811907C
:101E4000207C203C00F0080068B994F836008849EE
:101E500009780843864908708648805D94F83510F3
:101E600008438449885529462046FFF7B5FF504668
:101E7000BDE8F08F10B5774A1268D061754A1268D4
:101E800092F8343000F10B02D25C724B1B6893F86D
:101E900035301A436F4B1B6893F8344000F10B0345
:101EA0001A55827A6B4B1B6893F836301A4382724C
:101EB000684A126892F834106E4A525C654B1B688F
:101EC00093F835309A436B4B5A541A46525C42B9D8
:101ED000604A126892F83630654A12789A43644B29
:101EE0001A7010BD014600228A72002005E000230E
:101EF00001F10B021354421CD0B20828F7D37047EB
:101F000005E011F8013B00F8013B531E9AB2002A8C
:101F1000F7D170470146002002E0491C421CD0B2B4
:101F20000A78002AF9D170472DE9F84F05460F4687
:101F300090469946DDE90AAB0020009001F038FD9B
:101F400000904E480468002C75D0183454F8040CE6
:101F50004A490860009801F02FFD44F8187CA576E6
:101F6000002020766076606144F814BC44F80CAC24
:101F700044F8108C0C9824F8080C24F8069C0020D7
:101F8000E077E810207705F00700E076217F012058
:101F90008840A077E17E0120884060770020606063
:101FA000E060A0602062A0626062E0622063AFF245
:101FB00078306063183C002606E0002104F15000F0
:101FC00040F82610701CC6B2002EF6D0204601F054
:101FD000E9FC204601F00CFC01F0EAFC00901B48F3
:101FE00040F825402148006860610020A0611F483A
:101FF000006810B11D48006884611C4804603434D6
:10200000A0781B49097808431949087020781949B4
:10201000085C6178084314F83419164A505418487B
:102020000078401C16490870009801F0C5FC00209B
:10203000BDE8F88FFFE7009801F0BEFC4220F7E70B
:102040005A000020500000204F000020600A0020AD
:1020500068000020600000205C0000204400002098
:102060004C00002078000020700000206C00002050
:102070005100002052000020F23A000864000020C5
:102080005B0000202DE9F05F04460F4691461E4696
:102090004FF0000B2078052804D00120307000207C
:1020A000BDE8F09F09F0800ABAF1000F04D029F0D2
:1020B00080094FF0010801E04FF000080020307067
:1020C00001F076FC8346B9F1000F2CD0B9F1010F75
:1020D0003BD0B9F1020F03D0B9F1030F46D111E0A3
:1020E000208900EA0705BD4206D1B8F1010F05D1EC
:1020F0002089A843208101E070203070584601F00B
:102100005BFC3AE0208900EA070535B1B8F1010F20
:1021100005D12089A843208101E070203070584605
:1021200001F04AFC29E0208927EA0005BD4206D1DA
:10213000B8F1010F05D120892843208101E07020EA
:102140003070584601F038FC17E0208927EA000576
:1021500035B1B8F1010F05D120892843208101E074
:1021600070203070584601F027FC06E0584601F018
:1021700023FC00256F20307000BF00BF28468FE78A
:102180002DE9F04106460D460027FA48007820B1B7
:10219000102028700020BDE8F08101F009FC0746FE
:1021A000F548046884B100684068F3490860052078
:1021B0002070268100206060F0A0E060384601F0C9
:1021C000FBFB0020287004E0384601F0F5FB72208C
:1021D00028702046DFE730B501464A6808682AB90A
:1021E000CC68606028B10025456002E0106000B155
:1021F00042608B6800255D6230BDF0B506460F4633
:10220000B4680020283460602780207A00F0DF0066
:10221000207200206072207A283C88B93434A0787B
:10222000D74909780843D64908702078D549085C11
:102230006178084314F83419D24A5054012500E05B
:1022400000253046FFF7C7FF2846F0BD2DE9F047CF
:102250000446894615464FF0000AC648007820B16A
:102260000F2028702046BDE8F0872078052803D08D
:10227000012028702046F6E701F09AFB824660684C
:1022800008B1012700E00027B9F1000F03D0B9F130
:10229000010F3CD119E08FB9B8A0E0600020207098
:1022A000B5480068606000202081B3480460504653
:1022B00001F082FB00202870002605E0504601F066
:1022C0007BFB49202870264628E0D4F8048005E0EE
:1022D00000214046FFF791FFD8F80080B8F1000FC9
:1022E000F6D1A6A0E06000202070A34800686060DE
:1022F00000202081A0480460504601F05DFB012FC2
:1023000001D1FFF722FC00202870002606E050468D
:1023100001F052FB07202870264600BF00BF304660
:10232000A1E72DE9F04105460E46144600279148E5
:10233000007820B1112020700020BDE8F08101F06C
:1023400037FB07462878052806D0384601F034FBCD
:10235000012020700020F0E7E86830603068FFF767
:10236000D9FD8046384601F027FB0020207040460A
:10237000E3E72DE9F04105460E46144600277D4867
:10238000007818B112202070BDE8F08101F010FB38
:1023900007462878052805D0384601F00DFB0120B6
:1023A0002070F1E7EE60384601F006FB0020207057
:1023B00000BFE9E7F0B51446059E734F3F6897F8F4
:1023C000307047F02007DFF8C0C1DCF800C08CF89F
:1023D00030700027DFF8B0C1DCF800C08CF8317035
:1023E000694F3F68FE62684F3F6879620C828B7468
:1023F000654F3F688F6047680F6000274F60C86077
:10240000456805B1696041605F4F3F6897F83420C7
:102410005C4FBF5CDFF870C1DCF800C09CF835C0D1
:1024200027EA0C07DFF85CC10CF802706746BF5C56
:102430005FB9554F3F6897F836C0514F3F7827EA4C
:102440000C07DFF83CC18CF80070F0BD2DE9F04FAF
:1024500089B005460F4691469A46129E002002908A
:102460004448007828B102203070002009B0BDE84F
:10247000F08F4648007818B10D2030700020F5E745
:102480002878052803D0012030700020EEE709F0FD
:10249000800BBBF1000F04D009F07F094FF0010859
:1024A00001E04FF0000801F083FA0290B9F1000F4B
:1024B0004AD0B9F1010F78D0B9F1020F03D0B9F1C8
:1024C000030F71D120E0288900EA0704BC420FD134
:1024D000B8F1010F02D12889A04328812A48006859
:1024E0000485029801F068FA002030702046BDE7AC
:1024F0004B463A4604A92846CDF800A0FFF75AFFFC
:10250000029801F059FA78E0288900EA07047CB1C2
:10251000B8F1010F02D12889A04328811A48006828
:102520000485029801F048FA0020307020469DE7AB
:102530004B463A4604A92846CDF800A0FFF73AFFDB
:10254000029801F039FA58E0288927EA0004BC42D1
:102550001ED1B8F1010F02D12889204328810A48F1
:1025600000680485029801F027FA002030702046A8
:102570007CE71AE04D0000203C0000203F000000F6
:102580005100002052000020600000204E0000207A
:102590004B463A4604A92846CDF800A0FFF70AFFAB
:1025A000029801F009FA28E01FE0288927EA0004D0
:1025B0007CB1B8F1010F02D1288920432881B148AC
:1025C00000680485029801F0F7F900203070204679
:1025D0004CE74B463A4604A92846CDF800A0FFF741
:1025E000E9FE029801F0E8F907E0029801F0E4F949
:1025F00000246F203070204638E700BFFFF7A5FAAF
:1026000001F0D6F902909F48006890F8310020B39D
:102610009C48006890F831000390002099490968AF
:1026200081F8310004A8FFF7D6FD0020954909681C
:1026300081F83000029801F0BFF9002403980128C6
:1026400005D0022802D10E20307003E000BF0A201E
:10265000307000BF00BF204608E78A480068048D3C
:10266000B8F1010F1ED1B9F1000F0ED0B9F1010F71
:102670000CD0B9F1020F03D0B9F1030F0AD100E079
:1026800000BF2889A04328810BE000BF2889204390
:10269000288106E0029801F08FF96F203070002049
:1026A000E4E600BF029801F087F900203070204670
:1026B000DCE670B5002501F07BF90546714800683D
:1026C000048D284601F078F9204670BD2DE9FC5FA5
:1026D0000446894692461E46002000902078052830
:1026E00004D0012030700020BDE8FC9F01F060F9AB
:1026F0000090BAF1000F03D0BAF1010F0AD104E043
:10270000208920EA090020810BE0208940EA0900A5
:10271000208106E0009801F04FF971203070002010
:10272000E2E700BF4FF0000B656855E0A87C40B3BE
:10273000012838D0022802D0032844D111E0208992
:10274000298A00EA0107288AB84209D13946284671
:10275000FFF753FD8046B8F1010F01D14FF0010B97
:1027600038E02089298A00EA01074FB13946284616
:10277000FFF743FD8046B8F1010F01D14FF0010B87
:1027800028E0288A218920EA0107288AB84209D14D
:1027900039462846FFF731FD8046B8F1010F01D1D7
:1027A0004FF0010B16E0288A218920EA01074FB17A
:1027B00039462846FFF721FD8046B8F1010F01D1C7
:1027C0004FF0010B06E0009801F0F6F86F20307032
:1027D000002089E700BF2D68002DA7D1009801F0E7
:1027E000EBF8BBF1010F01D1FFF7AFF901F0E0F811
:1027F000009020890190009801F0DEF800203070F0
:10280000019871E72DE9F04104460D460027207834
:10281000052804D0012028700020BDE8F08101F0D7
:10282000C7F807462689384601F0C6F80020287008
:102830003046F2E72DE9F04150211348FFF774F8D4
:1028400000250EE0681C86B20F4800EB051400EB73
:102850000617002020706760AFF2E020E060681C7F
:1028600085B2042DEED3084800EB0514002020703B
:102870006060AFF2F820E060034804490860BDE8FA
:10288000F081000060000020100600203C000020C5
:102890002DE9F04106460D464FF000083078022839
:1028A00004D0012028700020BDE8F08101F080F8FC
:1028B00080467468E08A78B12169081D20610F683C
:1028C000E08A401EE082A1682069884201D16068E8
:1028D00020610020287002E01F2028700027404659
:1028E00001F06AF83846DFE72DE9F04106460F4669
:1028F0004FF00008F748007810B10020BDE8F081E3
:1029000001F056F88046F4480568006820B1F248A6
:1029100000684068F0490860404601F04DF83DB35A
:1029200001F046F88046ED480468C4B100680068CC
:10293000EA490860404601F03FF8666006EB870010
:10294000A060E6602661A7820020E0820220287055
:10295000002028816C602846FFF7C4FA08E0DE48B2
:1029600000686860DC480560404601F025F80025F5
:102970002846C3E72DE9F0470446894615464FF03F
:10298000000A2078022804D0012028702046BDE8E3
:10299000F087D048007818B10F2028702046F6E75D
:1029A00001F006F88246A07A10B14FF0010801E06C
:1029B0004FF00008B9F1000F03D0B9F1010F45D174
:1029C0001FE0B8F1000F15D16668C4480068306098
:1029D000C248066000202070BF4800686060002088
:1029E0002081BD480460504600F0E6FF00202870BA
:1029F000002705E0504600F0DFFF492028702746F9
:102A00002BE005E00023042219462046FFF7F9F9E0
:102A1000A07A0028F6D16668B04800683060AF48F8
:102A2000066000202070AC480068606000202081B3
:102A3000A9480460504600F0BFFFB8F1010F01D172
:102A4000FFF783F800202870002706E0504600F0CA
:102A5000B3FF07202870274600BF00BF384696E71F
:102A600070B50546002600F0A3FF06466C68606856
:102A7000E060606820610020E082304600F09CFF4A
:102A8000002070BD2DE9F0470746884615464FF0F7
:102A900000093878022804D0012028700020BDE801
:102AA000F0878C48007818B1022028700020F6E7E3
:102AB0008B48007818B10D2028700020EFE700F057
:102AC00077FF81467C68E08A98B12169081D206102
:102AD0000E68E08A401EE082A1682069884201D128
:102AE00060682061484600F067FF0020287030468B
:102AF000D5E77C48006890F8300040F00400794940
:102B0000096881F8300000207649096881F83100B1
:102B100074480068C0F82C803846FFF7ABF9484687
:102B200000F04AFFFFF711F800F042FF81466D48C0
:102B3000006890F8310020B101280DD002280AD198
:102B400005E068480068066A002028700DE000264D
:102B50000E20287009E000BF394662480068FFF780
:102B60003BF900260A20287000BF00BF00205D4905
:102B7000096881F830005B49096881F831005949DA
:102B80000968C861574909680862484600F014FF9F
:102B9000304684E72DE9F04104460F4615464FF0D4
:102BA00000082078022804D0012028700020BDE809
:102BB000F08100F0FDFE8046A07A20B300267FB1B0
:102BC000012F0CD107E00223042200212046FFF749
:102BD00018F9701CC6B2A07A0028F4D109E000BF31
:102BE0000223042200212046FFF70BF9701CC6B215
:102BF00000BF00BF404600F0DFFEFEF7A6FF0E203C
:102C000028703046D3E7404600F0D6FE00202870FA
:102C100000BFCCE72DE9F04105460E460027287895
:102C2000022802D00120BDE8F08100F0C1FE074675
:102C3000A87A60B10023042231462846FFF7E1F864
:102C4000384600F0B9FEFEF780FF0020EBE76C6825
:102C5000E08AA18A884204DB384600F0ADFE1E20DF
:102C6000E1E7E168081DE0600E60E08A401CE08258
:102C7000D4E90210884201D16068E060384600F073
:102C80009BFE0020CFE72DE9F04105460E460027C8
:102C90002878022802D00120BDE8F08100F088FEEB
:102CA0000746A87A60B10023042231462846FFF780
:102CB000A8F8384600F080FEFEF747FF0020EBE75B
:102CC0006C68E08AA18A88420EDB384600F074FE08
:102CD0001E20E1E74D000020380000207400002095
:102CE0004E0000206000002061682069884201D108
:102CF000A06820612069001F206120690660E08AC9
:102D0000401CE082384600F057FE0020C4E72DE961
:102D1000F04105460F4616464FF000082878022875
:102D200002D00120BDE8F08100F042FE8046A87A82
:102D3000E8B106F0010050B105E000230422394655
:102D40002846FFF75EF8A87A0028F6D105E00023B0
:102D5000042239462846FFF754F8404600F02CFE7E
:102D600006F0040008B9FEF7F0FE0020DAE76C6810
:102D7000E08AA18A884204DB404600F01DFE1E2046
:102D8000D0E706F0020058B161682069884201D19D
:102D9000A06820612069001F20612069076009E0A8
:102DA000E168081DE0600F60D4E90210884201D19B
:102DB0006068E060E08A401CE082404600F0FCFD74
:102DC0000020AFE72DE9F04705460C464FF0000A1A
:102DD0002878022802D00120BDE8F08700F0E8FD45
:102DE0008246A87A207405F10B0804F1080900272F
:102DF00005E018F8010B09F8010B781CC7B2082F81
:102E0000F7D36E68F08A18B130690068206001E07D
:102E100000202060F08AA080B08AE080504600F058
:102E2000CBFD0020D8E72DE9F04178211048FEF7CE
:102E30007BFD00240DE0601C86B204EB44000C49CD
:102E400001EBC00506EB460001EBC0072F60601CDC
:102E500084B2042CEFD304EB4400054901EBC00518
:102E600000202860084603490860BDE8F0810000A2
:102E7000500F0020740000202DE9FF5F8146884636
:102E80000020009000F094FD0090F94850F82800D0
:102E900030B1009800F090FD282004B0BDE8F09F0C
:102EA000B9F1FF0F03D1F348006890F83290F04871
:102EB00050F8294024B9009800F07EFD2920ECE765
:102EC000012C04D1009800F077FD4320E5E74FEA9C
:102ED000E80708F0070003900120B84000F0FF0A5F
:102EE00001210398814001F0FF0B0020E04941F8E7
:102EF0002900084640F8284014F8346FA078029062
:102F00006078343C0190DC48815D01980140D1B18A
:102F1000D948805D01998843D74988550846805D26
:102F200028B9D648007802998843D4490870D34814
:102F3000007840EA0A00D1490870CF48C05D40EAF5
:102F40000B00CD49C855E569D5B105F10B00805D91
:102F50000199884305F10B0188550846805D18B931
:102F6000A87A02998843A872A87A40EA0A00A8724F
:102F700005F10B00C05D40EA0B0005F10B01C855DF
:102F800084F8328084F83470039884F8330084F82D
:102F900036A084F835B0009800F00EFDB8480078EF
:102FA000012801D1FEF7D1FD002076E72DE9FE4F83
:102FB00006460F4690461C464FF0000900F0F8FC0C
:102FC0008146B048007828B1484600F0F5FC3C2026
:102FD000BDE8FE8FA64850F8240060BB0120A4493C
:102FE00041F82400484600F0E7FC002342463946F9
:102FF000304600F001FC824600200090019003461C
:103000000246514602902046FEF78EFF054635B92E
:103010009B48007801280CD1FEF797FD09E000F0ED
:10302000C7FC81460020924941F82400484600F040
:10303000C3FC2846CCE7484600F0BEFC2820C7E782
:1030400002F0010343B102F002032BB102E0491E7A
:10305000002308C00029FAD170472DE9F04F85B050
:1030600081468A4693461C46DDE90F78129D002072
:10307000039000F09DFC03908248007830B10398E3
:1030800000F09AFC3C2005B0BDE8F08F784850F87D
:10309000240088BB0120764941F82400039800F001
:1030A0008BFC2A4641463846FFF7CAFF2B465A4654
:1030B0005146484600F0A0FB04901198CDE90080ED
:1030C00002953A4620460E9B0499FEF72DFF0646D0
:1030D00036B96B48007801280CD1FEF736FD09E0BF
:1030E00000F066FC03900020614941F82400039839
:1030F00000F062FC3046C6E7FFE7039800F05CFC96
:103100002820C0E72DE9F041054600275D480078FA
:1031100010B14020BDE8F0813F2D01D13E20F9E7FC
:1031200000F046FC0746FF2D03D15248006890F896
:1031300032504F4850F8254024B9384600F03CFC46
:103140004320E7E7012C04D1384600F035FC3D2050
:10315000E0E714F8340F4849085C61788843217827
:10316000454A505414F834091146085C30B994F8B3
:10317000361042480078884340490870E06918B129
:103180002046E169FEF728FE666A16B13046FFF771
:1031900022F80020E06284F8300084F831003A48D8
:1031A0000078FF2804D238480078401C364908705F
:1031B000384600F001FCFEF70EFE00F0F9FB074672
:1031C0003148007820B130480078401E2E49087000
:1031D000204600F00EFB2D480078401E2B49087059
:1031E0000020234941F82500A06930B90020616919
:1031F000886127496069086005E0D4E905014861F4
:10320000D4E90510886123480068606121480460A2
:1032100021A0E064384600F0CFFB1948007801286F
:1032200001D1FEF792FC002074E72DE9F04104463D
:1032300000273F2C02D13E20BDE8F081FF2C0BD1AE
:1032400000F0B6FB07460B48006890F83760384638
:1032500000F0B2FB3046EFE700F0AAFB0746044857
:1032600050F82450D5B9384600F0A6FB4320E3E7D8
:10327000600A002060000020520000205100002061
:103280005A0000204D0000204E0000205B0000206E
:103290006C000020640000203F000000012D04D1DC
:1032A000384600F089FB3D20C6E73F2085F837000F
:1032B000384600F081FB0020BEE72DE9F0470646C6
:1032C0000F4614464FF00008D648007820B1112070
:1032D00020700020BDE8F08700F06AFB8046FF2EDA
:1032E00003D1D148006890F83260D04850F8265099
:1032F00035B9404600F060FB432020700020E9E72C
:10330000012D06D1404600F057FB432020700020DD
:10331000E0E7E86C38603868FEF7FCFD814640461F
:1033200000F04AFB002020704846D3E72DE9F04129
:1033300006460F4614464FF00008BA48007818B108
:1033400012202070BDE8F08100F032FB8046FF2E95
:1033500003D1B548006890F83260B44850F8265060
:103360002DB9404600F028FB43202070EAE7012DEC
:1033700005D1404600F020FB43202070E2E7EF64D7
:10338000404600F019FB0020207000BFDAE770B55E
:103390000546002600F00CFB0646A44850F82540E0
:1033A00024B9304600F008FB462070BD012C04D142
:1033B000304600F001FB4320F7E794F8300000F0BE
:1033C000080060B314F8300F00F0F700207014F814
:1033D0003009F8B9E06AC8B93434A078944909785A
:1033E00008439349087020789249085C6178084343
:1033F00014F834198F4A5054304600F0DDFA8E48E4
:103400000078012809D1FEF7A0FB06E0304600F065
:10341000D3FA02E0304600F0CFFA0020C5E730468C
:1034200000F0CAFA4420C0E72DE9F04707460D46F0
:103430004FF0000A00202860686000F0B9FA824668
:10344000FF2F03D17848006890F83270774850F821
:1034500027402CB9504600F0AFFA4320BDE8F08772
:10346000012C04D1504600F0A7FA4320F6E7207C57
:1034700000F0010020B9504600F09EFA4520EDE72B
:103480000026D4F80C90D4F80880504600F094FA46
:1034900000E0761C58F8041B0029FAD0B000286020
:1034A000A9EB0600800068600020D7E72DE9F04115
:1034B00005464FF0000800F07BFA8046FF2D05D14D
:1034C0005948006890F83250012608E056480068D4
:1034D00090F83200A84201D1012600E000265348AE
:1034E00050F825402CB9404600F066FA4820BDE867
:1034F000F081012C04D1404600F05EFA4320F6E74B
:1035000094F834704B48C05D94F8351088434949AD
:10351000C8550846C05D30B994F836104448007864
:1035200088434349087094F8300040F0080084F85C
:103530003000404600F040FA012E01D1FEF705FBB5
:103540000020D4E72DE9F04105460E46002700F0A3
:103550002FFA0746FF2D03D13348006890F8325008
:10356000324850F825402CB9384600F025FA292079
:10357000BDE8F081012C04D1384600F01DFA43204B
:10358000F6E7542221463046FEF7BAFC384600F0F2
:1035900013FA0020ECE72DE9F04704460E461746E3
:1035A0004FF0000900F004FA8146FF2C02D11E48BA
:1035B000056802E01D4850F8245005F1500050F80D
:1035C0002680484600F0F8F9002038704046BDE8F3
:1035D000F0872DE9F04704460E46174698464FF00F
:1035E000000900F0E5F98146FF2C02D10E4805687C
:1035F00002E00E4850F8245005F1500040F82670C3
:10360000484600F0D9F9002088F80000BDE8F087AE
:1036100010B50548006800F0C7F9FF20FFF772FDFC
:1036200010BD00004D00002060000020600A002056
:1036300051000020520000205A00002070B50546BD
:1036400000266348007800B170BD6248007800B180
:10365000FAE71DB300F0ACF906465F48006890F841
:1036600034405E48005D5C49096891F83510884334
:103670005A4908550846005D40B95748006890F817
:1036800036105748007888435549087052480068FA
:10369000C562304600F090F9FEF757FA00BFD3E755
:1036A0002DE9F04104460D4616461F46484800786D
:1036B00010B15520BDE8F0814648007808B13220AD
:1036C000F8E7B81CC82148434FF47A71B0FBF1F118
:1036D0004FF461606043C5EB051200EB820030449B
:1036E00000EBC00202EB001001EBC0084046FFF700
:1036F000A5FF0020DEE770B5054600263F2D01D36B
:103700002A2070BD00F054F90646364850F825408E
:1037100024B9304600F050F94320F2E7012C04D1DF
:10372000304600F049F94320EBE7E06A20B9304623
:1037300000F042F95020E4E70020E06294F8300005
:1037400000F0370040B114F8300F20F0370020703F
:1037500001206070303C02E0002084F8310094F8D1
:10376000300000F00800A8B93434A0781C4909786A
:1037700008431B49087020781849085C61780843A1
:1037800014F83419154A5054304600F015F9FEF774
:10379000DCF902E0304600F00FF90020B1E770B527
:1037A000002500F005F905460F480468284600F09A
:1037B00003F9204670BD70B50446002500F0F8F806
:1037C000054609480460284600F0F6F870BD000080
:1037D0004D0000204E00002060000020520000201C
:1037E00051000020600A00207800002070477047D8
:1037F000704770477047704770B504461046002602
:10380000051F28462E604FF48056051F28462E605F
:103810001526051F28462E601426051F28462E60F3
:103820001326051F28462E601226051F28462E60E7
:103830001126051F28462E601026051F28462E60DB
:103840000926051F28462E600826051F28462E60DB
:103850000726051F28462E600626051F28462E60CF
:103860000526051F28462E600426051F28462E60C3
:103870000326051F28462E600226051F28462E60B7
:103880000126051F28462E600026051F28462E60AB
:103890004FF080750560051F28462C60434E051FBC
:1038A00028462E604FF01236051F28462E604FF036
:1038B0000336051F28462E604FF00236051F2846A6
:1038C0002E607610051F28462E60051F28462960A9
:1038D0003126051F28462E603026051F28462E60FB
:1038E0002926051F28462E602826051F28462E60FB
:1038F0002726051F28462E602626051F28462E60EF
:103900002526051F28462E602426051F28462E60E2
:103910002326051F28462E602226051F28462E60D6
:103920002126051F28462E602026051F28462E60CA
:103930001926051F28462E601826051F28462E60CA
:103940001726051F28462E601626051F28462E60BE
:103950004FF01136051F28462E604FF01036051F18
:1039600028462E604FF00936051F28462E604FF07E
:103970000836051F28462E604FF00736051F2846DB
:103980002E604FF00636051F28462E604FF0053694
:10399000051F28462E604FF00436051F28462E606E
:1039A00070BD7047704770477047000011360008BF
:1039B000EFF3108072B6704780F310887047264C82
:1039C0004FF6FF7525604FF0000484F30988234CFF
:1039D0004FF001052570224C4FF08055256062B6EE
:1039E000FEE730B41E4C4FF08055256030BC704768
:1039F00030B41B4C4FF08055256030BC704700BF81
:103A000072B6EFF3098050B11EF0100F08BF20ED21
:103A1000108A203880E8F00F12490968086000B564
:103A2000114880475DF804EB104811490A7802708C
:103A30000C4810490A680260106890E8F00F2030C6
:103A40001EF0100F08BFB0EC108A80F309884EF00A
:103A5000040E62B6704700BF22ED00E05A0000205D
:103A600004ED00E060000020A33900084F000020B2
:103A70005000002068000020704770477047704772
:103A80007047754600F02CF8AE460500694653466F
:103A900020F00700854618B020B5FCF787FFBDE889
:103AA00020404FF000064FF000074FF000084FF0A5
:103AB000000B21F00701AC46ACE8C009ACE8C00936
:103AC000ACE8C009ACE8C0098D46704710B50446A3
:103AD000AFF300802046BDE81040FCF79EBB00001D
:103AE00000487047C80F00204FF04070E1EE100A08
:103AF0007047000001000200010003000100020005
:103B000001000400010002000100030001000200A6
:103B10000100050001000200010003000100020095
:103B20000100040001000200010003000100020086
:103B30000100060001000200010003000100020074
:103B40000100040001000200010003000100020066
:103B50000100050001000200010003000100020055
:103B60000100040001000200010003000100020046
:103B70000100070001000200010003000100020033
:103B80000100040001000200010003000100020026
:103B90000100050001000200010003000100020015
:103BA0000100040001000200010003000100020006
:103BB00001000600010002000100030001000200F4
:103BC00001000400010002000100030001000200E6
:103BD00001000500010002000100030001000200D5
:103BE00001000400010002000100030001000200C6
:103BF00001000000143C0008000000207C000000D0
:103C0000C4010008903C00087C000020AC150000B6
:103C1000E0010008007A030A000000000000000034
:103C2000010203040607080901000000000000006B
:103C30000000000000000000000001020304010277
:103C4000030406070809000000000000000000004F
:103C50000000000000000000000000000000000064
:103C60000000000000000000000000000000000054
:103C70000000000000000000000000000000000044
:103C80000000000000000000000000000000000034
:040000050800018965
:00000001FF
